:100000000C948B020C945E260C942D260C94FC25EB
:100010000C94CB250C949A250C9469250C943825C6
:100020000C9407250C9432270C940A270C94E22692
:100030000C94BC020C94BC020C94BC020C94BC0248
:100040000C94BC020C94BC020C94BC020C94BC0238
:100050000C94BC020C94BC020C94BC020C940C3D9D
:100060000C94BC020C94482A0C9470290C94BC0289
:100070000C94BC020C94BC020C94BC020C94BC0208
:100080000C94BC020C94BC020C94BC020C94BC02F8
:100090000C94152A0C9431290C94BC020C946D20FC
:1000A0000C94BC020C94BC020C94BC020C94BC02D8
:1000B0000C94BC020C94BC020C94BC020C94BC02C8
:1000C0000C94BC020C94BC020C94BC020C94E2296B
:1000D0000C94F2280C94BC020C94AF290C94B32815
:1000E0000C94BC02FA054D1253125E12E31269120F
:1000F00072127B12861291129C12AC12B712E3128A
:10010000C212CD12D812B115A715A915AB15AD1590
:10011000B315B515841657166016691672168D1626
:100120009616BB2ABE2AB12AB52AF52AC22AC62AA1
:10013000CC2AD02AD42ADA2ADE2AE22AF52AE82A88
:10014000EC2AF02A08000000BE922449123EABAA15
:10015000AA2ABECDCCCC4C3E00000080BEABAAAAE1
:10016000AA3E00000000BF000000803F0000000029
:1001700000084178D3BB4387D1133D190E3CC3BD62
:100180004282AD2B3E68EC8276BED98FE1A93E4C0F
:1001900080EFFFBE01C4FF7F3F00000000000C9411
:1001A000C2120C9469160C94F02A0C9472120C94DE
:1001B000DE210C940A220C94B7120C9453120C9466
:1001C00002220C94BD220C94DD220C94A9150C94EF
:1001D00096160C94B12A0C94DE2A0C94EC2A0C94FA
:1001E0008D160C9472160C94F9220C947B120C94BC
:1001F00047220C9469120C94A7150C9484160C9445
:10020000FA050C94BE2A0C9491120C944D120C9485
:10021000D02A0C94C62A0C94E22A0C94D8120C947E
:1002200070220C94B5150C94DD210C94B1150C942E
:10023000DA2A0C949C120C94B52A0C94C5210C94C7
:10024000E3120C947B2A0C94AC120C94CC2A0C94E0
:10025000A32A0C945E120C9451410C94B4210C947A
:10026000DF210C9480410C94D42A0C9419230C9413
:10027000BB2A0C94AB150C949C210C94E82A0C948A
:10028000DA210C9486120C9460160C94CD120C9406
:10029000F52A0C94C22A0C94B2220C94AD150C943D
:1002A000EE210C94B3150C945716005EBCE2613F2E
:1002B000DD83C29C7E20A3FD1F419DC3217FFCA244
:1002C000401E5F01E3BD3E6082DC237D9FC1421C76
:1002D000FEA0E1BF5D0380DE3C62BEE0025CDF8128
:1002E000633D7C22C09E1D43A1FF4618FAA42779D6
:1002F0009BC584DA3866E5BB5907DB856739BAE404
:1003000006581947A5FB7826C49A653BD987045A35
:10031000B8E6A7F91B45C6987A24F8A6441A99C7E7
:10032000257B3A6486D85B05E7B98CD2306EEDB395
:10033000510F4E10F2AC2F7193CD114FADF3702EC3
:10034000CC92D38D6F31B2EC0E50AFF1134DCE90F5
:10035000722C6D33D18F0C52B0EE326C8ED0530DA7
:10036000EFB1F0AE4C1291CF2D73CA947628ABF555
:1003700017490856B4EA6937D58B5709EBB5366883
:100380008AD495CB2977F4AA4816E9B7550B88D6B5
:10039000346A2B7597C94A14F6A8742AC896154B67
:1003A000A9F7B6E80A54D7896B355E01011F01032E
:1003B0000301008A02010A010202010064001E47D3
:1003C000040B0906007C0101060103030100F4018E
:1003D000060E0102020100C2011701010202010121
:1003E0009600023E01060601008101011101020290
:1003F000010000002100240027002A002D00300009
:10040000330001010000040107010A01000022007D
:10041000250028002B002E003100340002010000CE
:10042000050108010B010000090A02080B0C0D0769
:1004300006030401000000000000000000000000AE
:1004400000000000000000000000000000000000AC
:10045000000011100F00000000000000000000006C
:10046000000000000000000000000000000020006C
:100470002300260029002C002F003200000100007C
:100480000301060109010505050507050808080817
:10049000020202020A0A080804040404010101011C
:1004A0000101010103030303030303030407070717
:1004B0000C0C0C0C0C0C0C0C0202020206060606BC
:1004C000060606060B0B0B0B0B0B0B0B0102102089
:1004D000200808102040102040800201020108047A
:1004E000020101020408102040808040201008040E
:1004F0000201800402018040201008040201080467
:1005000002010102040810204080010204081020AA
:1005100040808041514111241FBECFEFD1E2DEBFA8
:10052000CDBF00E00CBF15E0A0E0B2E0E8E6F9E9DD
:1005300000E00BBF02C007900D92AE3EB107D9F7A5
:100540002BE0AEEEB5E001C01D92A13FB207E1F78E
:1005500012E0CAE8D2E000E006C021970109802F2E
:10056000FE010E94B24BC938D10780E00807A9F705
:100570000E9411430C940A450C9400002F923F9264
:100580004F925F926F927F928F929F92AF92BF92A3
:10059000CF92DF92EF92FF920F931F93CF93DF934F
:1005A000CDB7DEB7CA5ED4400FB6F894DEBF0FBE3B
:1005B000CDBF0E94E62F6138784A8241914090F089
:1005C0000E94D0171092EE0561E086E00E942F2F66
:1005D00068EB7BE080E090E00E94C02F60E086E066
:1005E0000E942F2F65E673E0CE0188549B4F0E9436
:1005F000AA2E8EEA98E00E94F922892B89F08EEAD1
:1006000098E00E94BD22682FCE0188549B4F0E9423
:100610009B2D6AE070E080E090E00E94C02FE9CF5F
:10062000BE0168547B4FCE0101960E94A02ECE01E0
:1006300001960E947F39CE0101960E946E2E65E6DA
:1006400073E0CE0188549B4F0E944E2D882361F0A9
:100650008091EE05813011F00C9410120E94D01799
:100660001092EE050C941012BE0168547B4FCE011F
:1006700001960E94A02E63EB72E0CE0101960E94CB
:100680004E2D882359F0BE016F5F7F4F8EEA98E0B0
:100690000E94522B8EEA98E00E943E2BCE010196DA
:1006A0000E946E2E0E94D01781E08093EE058E018D
:1006B0000F5F1B4F4E0133E7831A3BEF930A58013C
:1006C00065E673E0C8010E94AA2E095F1F4F081556
:1006D0001905B1F7BE0168547B4FCE0101960E9407
:1006E000A02EB501CE0101960E946A337C01CE0195
:1006F00001960E946E2E67EB72E0CE0101960E9479
:10070000AA2E9501A70160E070E0CE0101960E943B
:10071000871B1C01CE0101960E946E2E6DEC73E0CA
:10072000CE0101960E94AA2E9501A7016FEF7FEFDF
:10073000CE0101960E94871B6C01CE0101960E949A
:100740006E2E6DEB72E0CE0184569B4F0E94AA2E56
:100750009501A7016FEF7FEFCE0184569B4F0E945A
:10076000871B8C01019609F485C08FEFC816D80647
:1007700009F480C064EC72E0CE0101960E94AA2EBA
:100780009501A70165E070E0CE0101960E94871BEC
:100790002C01CE0101960E946E2E6BEC72E0CE0110
:1007A00001960E94AA2E9501A70163E070E0CE0198
:1007B00001960E94871BC552DB4F99838883CB5DCE
:1007C000D440CE0101960E946E2E63ED72E0CE0100
:1007D00001960E94AA2E9501A7016AE070E0CE0161
:1007E00001960E94871B3C01CE0101960E946E2E4D
:1007F0004AE0B801C4010E94732E6DEB72E0CE0195
:1008000001960E94AA2EB401CE0101960E94DD1726
:10081000CE0101960E946E2EC4010E946E2E2114FC
:10082000310459F09301C552DB4F48815981CB5DAA
:10083000D440B201C6010E94563D61E08C2D0E9459
:100840002F2F68EE73E080E090E00E94C02F9301AC
:10085000A201C552DB4F68817981CB5DD440C801CC
:100860000E94913160E08C2D0E942F2F8EEA98E03B
:100870000E943E2BCE0184569B4F0E946E2E6FED40
:1008800072E0CE0184569B4F0E94AA2E9501A701CB
:100890006FEF7FEFCE0184569B4F0E94871B8C0128
:1008A0000F3F9FEF190709F490C0AFEFCA16DA06A1
:1008B00009F48BC064EC72E0CE0101960E94AA2E6E
:1008C0009501A70165E070E0CE0101960E94871BAB
:1008D0002C01CE0101960E946E2E6BEC72E0CE01CF
:1008E00001960E94AA2E9501A70163E070E0CE0157
:1008F00001960E94871BC552DB4F99838883CB5D8D
:10090000D440CE0101960E946E2E63ED72E0CE01BE
:1009100001960E94AA2E9501A7016AE070E0CE011F
:1009200001960E94871B3C01CE0101960E946E2E0B
:100930004AE0B801C4010E94732E65EE72E0CE0158
:1009400001960E94AA2EB401CE0101960E94DD17E5
:10095000CE0101960E946E2EC4010E946E2E2114BB
:10096000310459F09301C552DB4F48815981CB5D69
:10097000D440B201C6010E94563D61E08C2D0E9418
:100980002F2F68EE73E080E090E00E94C02F00E01F
:1009900010E0F801E050FE4F80819301A201C552A2
:1009A000DB4F68817981CB5DD44090E00E9491312A
:1009B0000F5F1F4F0630110561F760E08C2D0E941C
:1009C0002F2F8EEA98E00E943E2BCE0184569B4F3B
:1009D0000E946E2E62EF72E0CE0184569B4F0E9401
:1009E000AA2E9501A7016FEF7FEFCE0184569B4F92
:1009F0000E94871B8C01019609F490C0EFEFCE1680
:100A0000DE0609F48BC064EC72E0CE0101960E9410
:100A1000AA2E9501A70165E070E0CE0101960E9423
:100A2000871B2C01CE0101960E946E2E6BEC72E0AA
:100A3000CE0101960E94AA2E9501A70163E070E005
:100A4000CE0101960E94871BC552DB4F9983888394
:100A5000CB5DD440CE0101960E946E2E63ED72E014
:100A6000CE0101960E94AA2E9501A7016AE070E0CE
:100A7000CE0101960E94871B3C01CE0101960E9487
:100A80006E2E4AE0B801C4010E94732E62EF72E03C
:100A9000CE0101960E94AA2EB401CE0101960E94B9
:100AA000DD17CE0101960E946E2EC4010E946E2EAB
:100AB0002114310459F09301C552DB4F488159810B
:100AC000CB5DD440B201C6010E94563D61E08C2D41
:100AD0000E942F2F68EE73E080E090E00E94C02F0C
:100AE00000E010E0F801EA5FFD4F80819301A20170
:100AF000C552DB4F68817981CB5DD44090E00E9484
:100B000091310F5F1F4F0630110561F760E08C2DAA
:100B10000E942F2F8EEA98E00E943E2BCE01845631
:100B20009B4F0E946E2E6CEF72E0CE018D559B4F55
:100B30000E94AA2E9501A70160E070E0CE018D55BC
:100B40009B4F0E94871B8C0160E173E0CE018456AD
:100B50009B4F0E94AA2E9501A7016FEF7FEFCE0158
:100B600084569B4F0E94871B3C018F3FFFEF9F07DE
:100B700009F456C04AE0BC01C4010E94732E60E132
:100B800073E0CE0101960E94AA2EB401CE01019617
:100B90000E94DD17CE0101960E946E2EC4010E94B4
:100BA0006E2E4AE0B801C4010E94732E6CEF72E011
:100BB000CE0101960E94AA2EB401CE0101960E9498
:100BC000DD17CE0101960E946E2EC4010E946E2E8A
:100BD00080E090E0FC01E45FFD4F208130E0621690
:100BE000730611F40C942F1201968930910591F738
:100BF0000C94EE1284B5806884BD07BD6DE173E08E
:100C00008EEA98E00E94052CA801110F660B770B65
:100C10008EEA98E00E949E178EEA98E00E943E2B92
:100C2000CE0184569B4F0E946E2ECE018D559B4F58
:100C30000E946E2E6FE373E0CE0184569B4F0E949C
:100C4000AA2E9501A7016FEF7FEFCE0184569B4F2F
:100C50000E94871B3C01019609F48BC03FEFC3162D
:100C6000D30609F486C064EC72E0CE0101960E94BE
:100C7000AA2E9501A70165E070E0CE0101960E94C1
:100C8000871B2C01CE0101960E946E2E6BEC72E048
:100C9000CE0101960E94AA2E9501A70163E070E0A3
:100CA000CE0101960E94871BC552DB4F9983888332
:100CB000CB5DD440CE0101960E946E2E63ED72E0B2
:100CC000CE0101960E94AA2E9501A7016AE070E06C
:100CD000CE0101960E94871B8C01CE0101960E94D5
:100CE0006E2E083E43E0140714F408EE13E04AE0C9
:100CF000B301C4010E94732E6FE373E0CE0101962D
:100D00000E94AA2EB401CE0101960E94DD17CE01E9
:100D100001960E946E2EC4010E946E2E2114310491
:100D200059F09801C552DB4F48815981CB5DD440C1
:100D3000B201C6010E94563D61E08C2D0E942F2F0A
:100D400068EE73E080E090E00E94C02F9801A2015D
:100D5000C552DB4F68817981CB5DD440C3010E94CD
:100D6000F83160E08C2D0E942F2F8EEA98E00E94CF
:100D70003E2BCE0184569B4F0E946E2E65E473E09D
:100D8000CE018D559B4F0E94AA2E9501A7016FEFB2
:100D90007FEFCE018D559B4F0E94871BC152DB4FC9
:100DA00099838883CF5DD4406BE473E0CE01845691
:100DB0009B4F0E94AA2E9501A7016FEF7FEFCE01F6
:100DC00084569B4F0E94871B3C018FEF6816780664
:100DD00009F4BBC09FEFC916D90609F4B6C0C152C9
:100DE000DB4FA881B981CF5DD440119609F4ADC025
:100DF00064EC72E0CE0101960E94AA2E9501A70133
:100E000061E070E0CE0101960E94871B2C01CE01AB
:100E100001960E946E2E6BEC72E0CE0101960E944C
:100E2000AA2E9501A70160E070E0CE0101960E9414
:100E3000871BC552DB4F99838883CB5DD440CE019D
:100E400001960E946E2E63ED72E0CE0101960E9423
:100E5000AA2E9501A70168EE73E0CE0101960E94CB
:100E6000871B382F292FCE010196C651DB4F2883CF
:100E7000CA5ED440C751DB4F3883C95ED4400E945C
:100E80006E2EC751DB4F3881C95ED440032FC65147
:100E9000DB4F2881CA5ED440122F083EF3E01F07C3
:100EA00014F408EE13E04AE0B301C4010E94732E6B
:100EB0006BE473E0CE0101960E94AA2EB401CE012C
:100EC00001960E94DD17CE0101960E946E2EC4018C
:100ED0000E946E2E2114310459F09801C552DB4F47
:100EE00048815981CB5DD440B201C6010E94563D74
:100EF00061E08C2D0E942F2F68EE73E080E090E07F
:100F00000E94C02F9801A201C552DB4F68817981F0
:100F1000CB5DD440C3010E94F8319801A201C552B3
:100F2000DB4F68817981CB5DD440C152DB4F888132
:100F30009981CF5DD4400E94913160E08C2D0E9458
:100F40002F2F8EEA98E00E943E2BCE0184569B4FB5
:100F50000E946E2ECE018D559B4F0E946E2E61E534
:100F600073E0CE0183539B4F0E94AA2E9501A701E7
:100F70006FEF7FEFCE0183539B4F0E94871B4C0185
:100F800065E673E0CE0181549B4F0E94AA2E68E56E
:100F900073E0CE018F549B4F0E94AA2E85019701CA
:100FA000AE0141545B4FBE016F547B4FCE018A535B
:100FB0009B4F0E949F32CE018A539B4F0E942F1B52
:100FC000882309F4B8C02FEFC216D20609F4B3C0C3
:100FD000C4010197039710F40C940413ACC023E0F0
:100FE0008216910411F40C942F1464E078E0CE0181
:100FF00001960E941A3960E673E0CE0101960E94C4
:10100000052C2801110F66087708C301B2010E9460
:10101000C02FBE016F5F7F4FCE018D559B4F0E9449
:10102000EC32BE016D557B4F8EEA98E00E94522B48
:1010300060E673E0CE0101960E94052CC301B20167
:101040000E94C02FBE016F5F7F4FCE0183579B4F21
:101050000E94EC32BE0163577B4FCE018D559B4FF2
:101060000E94BE2DCE0183579B4F0E946E2EBE0163
:101070006D557B4F8EEA98E00E94522B66E673E036
:101080008EEA98E00E94052CBE016A537B4FCE0188
:1010900001960E94522B63E673E0CE0101960E94F6
:1010A000052CC301B2010E94C02FBE016F5F7F4FAC
:1010B000CE0184569B4F0E94EC32BE0164567B4F9A
:1010C0008EEA98E00E94522BC301B2010E94C02F09
:1010D000BE016F5F7F4FCE0183579B4F0E94EC3262
:1010E000BE0163577B4FCE0184569B4F0E94BE2D9D
:1010F000CE0183579B4F0E946E2EBE0164567B4FDC
:101100008EEA98E00E94522B8EEA98E00E943E2BD5
:1011100060E08C2D0E942F2FCE0184569B4F0E94A1
:101120006E2ECE018D559B4F0E946E2ECE018655A0
:101130009B4F0E946E2ECE018A539B4F0E946E2EB3
:10114000CE018F549B4F0E946E2ECE0181549B4F37
:101150000E946E2ECE0183539B4F0E946E2E6EE630
:1011600073E0CE0184569B4F0E94AA2E9501A701E1
:101170006FEF7FEFCE0184569B4F0E94871B8C013F
:101180008F3F3FEF930799F14FEFC416D40679F1E3
:101190004AE0BC01CE0183579B4F0E94732E6EE63E
:1011A00073E0CE0101960E94AA2EBE0163577B4FC9
:1011B000CE0101960E94DD17CE0101960E946E2E8F
:1011C000CE0183579B4F0E946E2E61E08C2D0E94B2
:1011D0002F2F68EE73E080E090E00E94C02FB601F0
:1011E000C8010E94CE1860E08C2D0E942F2FCE01E6
:1011F00084569B4F0E946E2E6DE773E0CE018F5494
:101200009B4F0E94AA2E9501A7016FEF7FEFCE01A1
:101210008F549B4F0E94871B4C0165E673E0CE0103
:101220008D559B4F0E94AA2E6BE873E0CE01845629
:101230009B4F0E94AA2E85019701AE014D555B4F31
:10124000BE0164567B4FCE0186559B4F0E949F3254
:10125000CE0186559B4F0E942F1B882309F4B5C0F1
:101260008FEFC816D80609F4B0C0BE0166557B4F93
:10127000CE0183579B4F0E94A02E6BE873E0CE01F6
:1012800001960E94AA2EBE0163577B4FCE010196A4
:101290000E94DD17CE0101960E946E2ECE0183576B
:1012A0009B4F0E946E2E4AE0B601CE0183579B4FA2
:1012B0000E94732E6DEC73E0CE0101960E94AA2E5F
:1012C000BE0163577B4FCE0101960E94DD17CE0110
:1012D00001960E946E2ECE0183579B4F0E946E2E68
:1012E00040E150E060E070E0C655DB4F88819981B5
:1012F000CA5AD4400E94AC43C057DB4F6883C059E0
:10130000D440C157DB4F7883CF58D440C257DB4F0E
:101310008883CE58D440C357DB4F9883CD58D440F0
:101320008E0103571B4F580134E0A30EB11C62E33A
:1013300074E08EEA98E00E94052CD8014D918D0151
:1013400050E060E070E020E18EEA98E00E949D2B82
:101350006CE28EEA98E00E94372B0A151B0539F7DC
:1013600088E28983C357DB4F8881CD58D4408A8374
:10137000C257DB4F8881CE58D4408B83C157DB4F97
:101380008881CF58D4408C838AE08D831E821F824F
:10139000C057DB4F8881C059D440888761E08C2DCD
:1013A0000E942F2F68EE73E080E090E00E94C02F33
:1013B000B401CE0101960E948B1A8EEA98E00E9439
:1013C0003E2B60E08C2D0E942F2FCE0186559B4F27
:1013D0000E946E2ECE0184569B4F0E946E2ECE012F
:1013E0008D559B4F0E946E2ECE018F549B4F0E94B5
:1013F0006E2E63EA73E0CE018C529B4F0E94AA2EA0
:101400009E012F5F3B4FA7016FEF7FEFCE018C5204
:101410009B4F0E94871B5C0168EA73E0CE018353F7
:101420009B4F0E94AA2E9E012F5F3B4FA7016FEF9B
:101430007FEFCE0183539B4F0E94871BC552DB4F2A
:1014400099838883CB5DD4406DEA73E0CE018A53E3
:101450009B4F0E94AA2E9E012F5F3B4FA7016FEF6B
:101460007FEFCE018A539B4F0E94871BC152DB4FF7
:1014700099838883CF5DD44061EB73E0CE018154C2
:101480009B4F0E94AA2E9E012F5F3B4FA7016FEF3B
:101490007FEFCE0181549B4F0E94871BCF51DB4FC2
:1014A0008883C15ED440792E66EB73E0CE018F5401
:1014B0009B4F0E94AA2E9E012F5F3B4FA7016FEF0B
:1014C0007FEFCE018F549B4F0E94871B4C0165E636
:1014D00073E0CE0101960E94AA2E6BEB73E0CE0161
:1014E00083579B4F0E94AA2E8E010F5F1B4F9701BF
:1014F000AE014F5F5F4FBE0163577B4FCE018655F4
:101500009B4F0E949F32CE0183579B4F0E946E2EAD
:10151000CE0101960E946E2E65E673E0CE018655DF
:101520009B4F0E944E2D8823D9F065E673E0CE01D3
:1015300084569B4F0E94AA2E60EC73E0CE018D551D
:101540009B4F0E94AA2E9701AE0144565B4FBE01ED
:101550006D557B4FCE0101960E949F3211E008C06D
:10156000BE0166557B4FCE0101960E94A02E10E071
:10157000BE016F5F7F4FCE0186559B4F0E94BE2DEF
:10158000CE0101960E946E2E112351F0CE018D5591
:101590009B4F0E946E2ECE0184569B4F0E946E2E52
:1015A000CE0186559B4F0E942F1B882379F0BFEFF9
:1015B000AB16BB0611F00C94331408C08EEA98E009
:1015C0000E943E2B60E08A2D0E942F2FCE0186556F
:1015D0009B4F0E946E2ECE018F549B4F0E946E2E09
:1015E000CE0181549B4F0E946E2ECE018A539B4F99
:1015F0000E946E2ECE0183539B4F0E946E2ECE0111
:101600008C529B4F0E946E2E6FEF73E0CE01865579
:101610009B4F0E94AA2E9E012F5F3B4FA7016FEFA9
:101620007FEFCE0186559B4F0E94871B8C01019650
:1016300009F48FC061E087E00E942F2F4AE0B801D3
:10164000CE0183579B4F0E94732E6FEF73E0CE0144
:1016500001960E94AA2EBE0163577B4FCE010196D0
:101660000E94DD17CE0101960E946E2ECE01835797
:101670009B4F0E946E2E68EE73E080E090E00E9427
:10168000C02F0E9425316BE074E08EEA98E00E9442
:10169000F32B412C512C3201C2010E94CC266DE16A
:1016A00074E08EEA98E00E94052C2AE0B301A201C2
:1016B0008EEA98E00E949D2B8EEA98E00E943E2BD5
:1016C000812C912C540120E882169104A104B104CC
:1016D00031F1E0E78E169104A104B104D1F040E0AD
:1016E000BE016F5F7F4F882D0E94641C811111C065
:1016F00068E274E08EEA98E00E94052C20E1B501D2
:10170000A4018EEA98E00E949D2B8EEA98E00E9448
:101710003E2BFFEF8F1A9F0AAF0ABF0AD4CF3FEFCD
:10172000431A530A630A730A48E0441651046104D9
:10173000710409F0B1CF65E374E08EEA98E00E948D
:10174000052C8EEA98E00E943E2B60E087E00E9424
:101750002F2FCE0186559B4F0E946E2E6AE374E0B8
:10176000CE018F549B4F0E94AA2E9E012F5F3B4FAC
:10177000A7016FEF7FEFCE018F549B4F0E94871B15
:101780005C0165E673E0CE0183579B4F0E94AA2E51
:101790006FE374E0CE0101960E94AA2E8E010F5FC6
:1017A0001B4F9701AE0143575B4FBE016F5F7F4FE9
:1017B000CE0186559B4F0E949F328FEFA816B80628
:1017C00041F0CE0186559B4F0E942F1B81110C9436
:1017D0007515CE0186559B4F0E946E2ECE01019647
:1017E0000E946E2ECE0183579B4F0E946E2ECE011B
:1017F0008F549B4F0E946E2E64E474E0CE018A5396
:101800009B4F0E94AA2E9E012F5F3B4FA7016FEFB7
:101810007FEFCE018A539B4F0E94871B5C0165E6D8
:1018200073E0CE018F549B4F0E94AA2E6AE474E0AD
:10183000CE0186559B4F0E94AA2E8E010F5F1B4F33
:101840009701AE014F545B4FBE0166557B4FCE01F1
:1018500081549B4F0E949F329FEFA916B90609F44D
:1018600008C1CE0181549B4F0E942F1B882309F48D
:1018700000C169EC74E0CE0101960E94AA2E9E017F
:101880002F5F3B4FA7016FEF7FEFCE0101960E94C4
:10189000871B8C01CE0101960E946E2EBE01615401
:1018A0007B4FCE0183579B4F0E94A02E6AE474E0C9
:1018B000CE0101960E94AA2EBE0163577B4FCE0136
:1018C00001960E94DD17CE0101960E946E2ECE0178
:1018D00083579B4F0E946E2E4AE0B801CE0183577A
:1018E0009B4F0E94732E69EC74E0CE0101960E941A
:1018F000AA2EBE0163577B4FCE0101960E94DD17D1
:10190000CE0101960E946E2ECE0183579B4F0E94FE
:101910006E2E4AE0B501CE0183579B4F0E94732E75
:1019200064E474E0CE0101960E94AA2EBE016357C2
:101930007B4FCE0101960E94DD17CE0101960E94D9
:101940006E2ECE0183579B4F0E946E2E1982CD536F
:10195000DB4F88819981C35CD4400097D1F04C0162
:10196000A1E08A1A91088815990508F44C01C15420
:10197000DB4F68817981CF5BD440A401CE01019611
:101980000E940F48E1E0F0E0EC0FFD1FE80DF91DAB
:10199000108266246A94762CC157DB4F7982688264
:1019A000CF58D4408AE090E0CF56DB4F99838883AC
:1019B000C159D440EDE88E2EE4E09E2E8C0E9D1E83
:1019C000B6E08B0E911C49E050E06AEA73E0C40176
:1019D0000E941645C357DB4F79826882CD58D440A8
:1019E0008CE390E090931A02809319021092A60A59
:1019F0001092A70A1092A80A1092A90A49E050E092
:101A00006AEA73E0C4010E9416458FE090E0CF5669
:101A1000DB4F99838883C159D440C157DB4FB982CA
:101A2000A882CF58D44061E08A2D0E945F2FCD5606
:101A3000DB4F19830883C359D440AE014F5F5F4F1A
:101A4000FA01412C512C32019F01241B350B81914D
:101A500081110C948215C157DB4F88819981CF5831
:101A6000D440019611F00C948E158EEA98E00E94F5
:101A70003E2BCE0181549B4F0E946E2ECE01865587
:101A80009B4F0E946E2ECE018F549B4F0E946E2E54
:101A9000CE018A539B4F0E946E2E6FE474E0CE01FC
:101AA0008F549B4F0E94AA2E9E012F5F3B4FA70190
:101AB0006FEF7FEFCE018F549B4F0E94871B5C011D
:101AC00063E574E0CE0186559B4F0E94AA2E9E01CD
:101AD0002F5F3B4FA7016FEF7FEFCE0186559B4FE6
:101AE0000E94871B4C01019609F44EC2FFEFAF160E
:101AF000BF0609F449C264EC72E0CE0101960E946F
:101B0000AA2E9E012F5F3B4FA70163E070E0CE013C
:101B100001960E94871BC552DB4F99838883CB5D5A
:101B2000D440CE0101960E946E2E6BEC72E0CE0185
:101B300001960E94AA2E9E012F5F3B4FA70163E0F2
:101B400070E0CE0101960E94871BC152DB4F998342
:101B50008883CF5DD440CE0101960E946E2E63ED46
:101B600072E0CE0101960E94AA2E9E012F5F3B4F8C
:101B7000A70160ED77E0CE0101960E94871B8C01E2
:101B8000CE0101960E946E2E21E02216310409F04A
:101B9000B8C04AE0B401CE0183579B4F0E94732E18
:101BA00063E574E0CE0101960E94AA2EBE01635740
:101BB0007B4FCE0101960E94DD17CE0101960E9457
:101BC0006E2ECE0183579B4F0E946E2E4AE0B501C8
:101BD000CE0183579B4F0E94732E66E574E0CE01C1
:101BE00001960E94AA2EBE0163577B4FCE0101963B
:101BF0000E94DD17CE0101960E946E2ECE01835702
:101C00009B4F0E946E2E4AE0C552DB4F688179815E
:101C1000CB5DD440CE0183579B4F0E94732E64EC62
:101C200072E0CE0101960E94AA2EBE0163577B4F3F
:101C3000CE0101960E94DD17CE0101960E946E2E04
:101C4000CE0183579B4F0E946E2E4AE0C152DB4F5C
:101C500068817981CF5DD440CE0183579B4F0E942C
:101C6000732E6BEC72E0CE0101960E94AA2EBE018B
:101C700063577B4FCE0101960E94DD17CE0101967E
:101C80000E946E2ECE0183579B4F0E946E2E4AE01B
:101C9000B601CE0183579B4F0E94732E6DEC73E00B
:101CA000CE0101960E94AA2EBE0163577B4FCE0142
:101CB00001960E94DD17CE0101960E946E2ECE0184
:101CC00083579B4F0E946E2E4AE0B801CE01835786
:101CD0009B4F0E94732E6DEA73E0CE0101960E9425
:101CE000AA2EBE0163577B4FCE0101960E94DD17DD
:101CF000CE0101960E946E2ECE0183579B4F0E940B
:101D00006E2E3FEFC316D30621F061E08C2D0E94AA
:101D10002F2F68EE73E080E090E00E94C02F898250
:101D2000AA821C821B821D8261E08A2D0E945F2F85
:101D300061E089810E942F2F61E089810E945F2FDD
:101D400086E090E00197F1F789E0982E96E0A92EC1
:101D5000B12C61E08A810E942F2FC5010197F1F714
:101D600060E08A810E942F2FC5010197F1F79A94B4
:101D70009110EFCFCE0101960E94A6376EE1CE0101
:101D800001960E94F11C68EE73E080E090E00E94F2
:101D9000C02FA12CB12C2801012E000C6608770859
:101DA000C152DB4F88819981CF5DD440A816B90616
:101DB000ACF49E0123573B4FAE0141545B4FBE0133
:101DC0006A537B4FCE0101960E943A1DC301B201B6
:101DD0000E94C02F4FEFA41AB40AE2CF412C512C1D
:101DE000320153014201C152DB4F19821882CF5D8B
:101DF000D440C801110FAA0BBB0BCB51DB4F88831A
:101E00009983AA83BB83C55ED440C152DB4FE8816E
:101E1000F981CF5DD440C552DB4F28813981CB5D3C
:101E2000D440E217F3070CF06FC09E0123573B4FDD
:101E3000AE0141545B4FBE016A537B4FCE01019608
:101E40000E943A1DCB51DB4F688179818A819B8149
:101E5000C55ED4400E94C02FCA53DB4F8881998150
:101E6000AA81BB81C65CD440CF51DB4F8883998364
:101E7000AA83BB83C15ED4409C01AD01C501B401FE
:101E80000E9439484B015C01C154DB4F28813981E4
:101E90004A815B81CF5BD440C301B2010E943948C3
:101EA0002B013C0191E02916310401F5CF51DB4FA4
:101EB000688179818A819B81C15ED4400E94FC1730
:101EC0006091490A8EEA98E00E94372BC154DB4F9B
:101ED000688179818A819B81CF5BD4400E94FC1705
:101EE0006091490A8EEA98E00E94372BC152DB4F7D
:101EF000A881B981CF5DD4401196C152DB4FB9831F
:101F0000A883CF5DD44081CFB901330F880B990BE3
:101F10000E949049C552DB4F688379838A839B83F3
:101F2000CB5DD4409B01AC01C301B2010E94AA4821
:101F30002B013C01C552DB4F288139814A815B81ED
:101F4000CB5DD440C501B4010E94AA480E94FC1791
:101F50006091490A8EEA98E00E94372BC301B201D2
:101F60000E94FC176091490A8EEA98E00E94372B84
:101F70003FEFC316D30621F060E08C2D0E942F2F77
:101F80008EEA98E00E943E2BCE0186559B4F0E9420
:101F90006E2ECE018F549B4F0E946E2E6CE574E026
:101FA000CE0101960E94AA2E9E012F5F3B4FA701F2
:101FB0006FEF7FEFCE0101960E94871B5C01CE017F
:101FC00001960E946E2E4FEFA416B40609F40FC2BC
:101FD00065E673E0CE0183579B4F0E94AA2E63E60D
:101FE00074E0CE0101960E94AA2E8E010F5F1B4F56
:101FF0009701AE0143575B4FBE016F5F7F4FCE012C
:102000008F549B4F0E949F32CE0101960E946E2EEC
:10201000CE0183579B4F0E946E2E65E673E0CE0182
:1020200083579B4F0E94AA2E6FE674E0CE01019663
:102030000E94AA2E9701AE0143575B4FBE016F5F0E
:102040007F4FCE0186559B4F0E949F32CE01019655
:102050000E946E2ECE0183579B4F0E946E2E65E626
:1020600073E0CE0183579B4F0E94AA2E6AE774E06B
:10207000CE0101960E94AA2E9801A70161E070E0AE
:10208000CE0101960E94871B4C01CE0101960E9451
:102090006E2E64E874E0CE018F549B4F0E944E2D4B
:1020A000882379F165E673E0CE0181549B4F0E944D
:1020B000AA2E64E874E0CE0101960E94AA2E970130
:1020C000AE0141545B4FBE016F5F7F4FCE018A531B
:1020D0009B4F0E949F32BE016A537B4FCE018357B4
:1020E0009B4F0E94BE2DCE018A539B4F0E946E2EA5
:1020F000CE0101960E946E2ECE0181549B4F0E940C
:102100006E2E2A94232809F0B6C04AE0B501CE010C
:1021100081549B4F0E94732E6CE574E0CE010196B2
:102120000E94AA2EBE0161547B4FCE0101960E94EF
:10213000DD17CE0101960E946E2ECE0181549B4F79
:102140000E946E2ECE018F549B4F0E942F1B88231E
:10215000F1F0BE016F547B4FCE0181549B4F0E9422
:10216000A02E63E674E0CE0101960E94AA2EBE0165
:1021700061547B4FCE0101960E94DD17CE0101967E
:102180000E946E2ECE0181549B4F0E946E2E64E8F9
:1021900074E0CE018F549B4F0E944E2D882361F036
:1021A000BE0163577B4F8EEA98E00E94522B6CE28F
:1021B0008EEA98E00E94372BCE0186559B4F0E94F5
:1021C0002F1B8823F1F0BE0166557B4FCE01815451
:1021D0009B4F0E94A02E6FE674E0CE0101960E94F4
:1021E000AA2EBE0161547B4FCE0101960E94DD17DD
:1021F000CE0101960E946E2ECE0181549B4F0E940B
:102200006E2E4AE0B601CE0181549B4F0E94732E80
:102210006DEC73E0CE0101960E94AA2EBE016154BE
:102220007B4FCE0101960E94DD17CE0101960E94E0
:102230006E2ECE0181549B4F0E946E2E4AE0B40157
:10224000CE0181549B4F0E94732E6AE774E0CE0149
:1022500001960E94AA2EBE0161547B4FCE010196C9
:102260000E94DD17CE0101960E946E2ECE01815490
:102270009B4F0E946E2E9FEFC916D90621F061E098
:102280008C2D0E942F2FCA53DB4F19821882C65CF7
:10229000D44080E090E0FC01EB5EFD4F208130E017
:1022A000A216B30631F1019684309105A1F76BE8CF
:1022B00074E08EEA98E00E94F32B60E08C2D0E947F
:1022C0002F2FCE0183579B4F0E946E2ECE01865535
:1022D0009B4F0E946E2ECE018F549B4F0E946E2EFC
:1022E0008E0103571B4F7E01AFEFEA1AABEFFA0ADC
:1022F0008FC01C821B8288EE93E0A0E0B0E08D834B
:102300009E83AF83B88727EA32E03A8329831E860B
:10231000AD861092D3081092D2088093D40890937F
:10232000D508A093D608B093D70889859A85AB8540
:10233000BC858093D8089093D908A093DA08B0930D
:10234000DB08A092DC081092DD088F8598899093B5
:10235000DF088093DE0860E0CE0101960E945A27D4
:102360008091A20A9091A30A805D984059F062E0A2
:1023700080ED98E00E945A2780ED98E09093A30AA0
:102380008093A20A64EF71E080E090E00E94C02F89
:10239000CE018A539B4F0E94A439882309F487CF2A
:1023A000CE018F549B4F0E942F1B8111C8C4CE01B8
:1023B00086559B4F0E942F1B8111CBC4892821F089
:1023C00060E08C2D0E942F2F8EEA98E00E943E2B19
:1023D000CE0183579B4F0E946E2ECE0186559B4F98
:1023E0000E946E2ECE018F549B4F0E946E2E8E0146
:1023F00003571B4F7E01BFEFEB1ABBEFFB0A0750E1
:102400001109C8010E946E2E0E151F05C1F708C0E4
:1024100007501109C8010E946E2E0E151F05C1F745
:10242000CE0188549B4F0E946E2EC651DB4F0FB6D3
:10243000F894DEBF0FBECDBFDF91CF911F910F91FA
:10244000FF90EF90DF90CF90BF90AF909F908F90D4
:102450007F906F905F904F903F902F90089561E034
:10246000862D0E945F2F0115110509F4AFC00F3FA3
:10247000110509F4ADC0F301EA5DFB4FE4918E2F25
:1024800090E0FC013197E131F10508F09CC088270C
:10249000EE58FF4F8F4F0C94B24B84B5806284BDD1
:1024A00008BD0C94FE0580918000806880938000B8
:1024B00010938900009388000C94FE0580918000A1
:1024C00080628093800010938B0000938A000C94AC
:1024D000FE058091B00080688093B0000093B30047
:1024E0000C94FE058091B00080628093B000009350
:1024F000B4000C94FE058091900080688093900059
:1025000010939900009398000C94FE058091900020
:1025100080628093900010939B0000939A000C942B
:10252000FE058091900088608093900010939D003C
:1025300000939C000C94FE058091A000806880931D
:10254000A0008091A0008F7B8093A0001093A90031
:102550000093A8000C94FE058091A00080628093F7
:10256000A0001093AB000093AA000C94FE0580918C
:10257000A00088608093A0001093AD000093AC0091
:102580000C94FE05809120018068809320011093B7
:102590002901009328010C94FE058091200180629E
:1025A0008093200110932B0100932A010C94FE05C7
:1025B0008091200188608093200110932D01009369
:1025C0002C010C94FE050038110514F460E001C0E4
:1025D00061E0862D0E942F2F0C94FE05013011051D
:1025E00039F461E0862D0E942F2F68E273E006C067
:1025F00060E0862D0E942F2F64E373E08EEA98E05E
:102600000E94052C0C940C0663ED72E0CE0101963D
:102610000E94AA2E9501A70168EE73E0CE010196F3
:102620000E94871B3C01CE0101960E946E2E63E63C
:1026300073E0CE0183579B4F0E94AA2E6BE974E092
:10264000CE0101960E94AA2E85019701AE01435743
:102650005B4FBE016F5F7F4FCE0186559B4F0E943F
:102660009F32CE0101960E946E2ECE0183579B4F62
:102670000E946E2EBE016A537B4FCE0183579B4F43
:102680000E94A02E69EA74E0CE0101960E94AA2E53
:10269000BE0163577B4FCE0101960E94DD17CE012C
:1026A00001960E946E2ECE0183579B4F0E946E2E84
:1026B0004AE0B601CE0183579B4F0E94732E65EB13
:1026C00074E0CE0101960E94AA2EBE0163577B4F93
:1026D000CE0101960E94DD17CE0101960E946E2E5A
:1026E000CE0183579B4F0E946E2E4AE0B401CE016B
:1026F00083579B4F0E94732E61E573E0CE010196D4
:102700000E94AA2EBE0163577B4FCE0101960E9404
:10271000DD17CE0101960E946E2ECE0183579B4F8E
:102720000E946E2E4AE0B301CE0183579B4F0E9458
:10273000732E69EB74E0CE0101960E94AA2EBE01B1
:1027400063577B4FCE0101960E94DD17CE010196A3
:102750000E946E2ECE0183579B4F0E946E2E8301E6
:10276000E8EE6E16E3E07E0614F408EE13E061E096
:102770008C2D0E942F2F68EE73E080E090E00E9485
:10278000C02F8091B0089091B1089C838B83809179
:10279000B2089091B308A091B408B091B5088D83A8
:1027A0009E83AF83B8878091B6089091B708A091B7
:1027B000B808B091B90889879A87AB87BC878FE73B
:1027C00092E09A8389838091BA089091BB089E8792
:1027D0008D878091BC089091BD08988B8F878091E0
:1027E000BE089091BF089A8B898B8091C008909108
:1027F000C1089C8B8B8B8091C2089091C3089E8BE3
:102800008D8B8091C4089091C508988F8F8B809193
:10281000C6089091C7089A8F898F8091C8089091B7
:10282000C9089C8F8B8F8091CA088D8F8091CB08AF
:102830008E8F8091CC088F8F8091CD0888A3809156
:10284000CE0889A38091CF088AA3F2E08F16910465
:1028500011F00C94EF076AE577E00C94F70760EB52
:1028600076E00C94F707BE0166557B4FCE010196CA
:102870000E94A02E6FEB74E0CE0183579B4F0E9405
:10288000AA2EBE016F5F7F4FCE0183579B4F0E94E0
:10289000DD17CE0183579B4F0E946E2ECE0101960D
:1028A0000E946E2E41E02416310409F0A5C04AE0D2
:1028B000B501CE0101960E94732E66EC73E0CE0145
:1028C00083579B4F0E94AA2EBE016F5F7F4FCE01A0
:1028D00083579B4F0E94DD17CE0183579B4F0E9469
:1028E0006E2ECE0101960E946E2E4AE0B401CE01FA
:1028F00001960E94732E6DE773E0CE0183579B4FC4
:102900000E94AA2EBE016F5F7F4FCE0183579B4F5F
:102910000E94DD17CE0183579B4F0E946E2ECE0181
:1029200001960E946E2E4AE0CF51DB4F6881C15E56
:10293000D440772DCE0101960E94732E63ED73E093
:10294000CE0183579B4F0E94AA2EBE016F5F7F4F1F
:10295000CE0183579B4F0E94DD17CE0183579B4FBB
:102960000E946E2ECE0101960E946E2E4AE0C15248
:10297000DB4F68817981CF5DD440CE0101960E9402
:10298000732E65EE73E0CE0183579B4F0E94AA2EF3
:10299000BE016F5F7F4FCE0183579B4F0E94DD17B3
:1029A000CE0183579B4F0E946E2ECE0101960E944E
:1029B0006E2E4AE0C552DB4F68817981CB5DD440F1
:1029C000CE0101960E94732E61EF73E0CE01835712
:1029D0009B4F0E94AA2EBE016F5F7F4FCE0183578F
:1029E0009B4F0E94DD17CE0183579B4F0E946E2E96
:1029F000CE0101960E946E2E40E150E060E070E052
:102A0000C655DB4F88819981CA5AD4400E94AC4395
:102A100028E229839A838B837C838AE08D831E82BC
:102A20001F82688761E08A2D0E942F2F68EE73E075
:102A300080E090E00E94C02FB401CE0101960E9478
:102A40008B1A61E0CF51DB4F8881C15ED4400E9478
:102A50002F2F00E010E0C152DB4FE881F981CF5DFC
:102A6000D4402F01FF0F66087708C552DB4F28813D
:102A70003981CB5DD4400217130764F4C301B2015E
:102A80000E94C02FB401CE0101960E948B1A0F5FE5
:102A90001F4FEBCF60E0CF51DB4F8881C15ED44048
:102AA0000E942F2F00E010E0C152DB4F88819981F6
:102AB000CF5DD4402C01990F66087708C552DB4FD3
:102AC000A881B981CB5DD4400A171B0714F00C9480
:102AD000DE0AC301B2010E94C02FB401CE010196EB
:102AE0000E948B1A0F5F1F4FE9CF8E010F5F1B4FA4
:102AF0009501AE0146555B4FB101C7010E94E43D0F
:102B00000C94E90B440C551C661C771C803311F4A3
:102B10000C94240D689440F80C94240DC357DB4F9B
:102B200008811981CD58D4400F3FFFEF1F0771F185
:102B3000083020F5802F90E0FC013197E730F10557
:102B400070F48827ED57FF4F8F4F0C94B24BE898E5
:102B50000DC0E9980BC0EA9809C0EB9807C0EC9843
:102B600005C0ED9803C0EE9801C0EF98F801FF276B
:102B7000EE0FFF1FE655F54F118210828FEF9FEF8A
:102B8000C357DB4F99838883CD58D440812C912C37
:102B9000C9010197C552DB4F99838883CB5DD4402F
:102BA000CF56DB4F88819981C159D4408816990648
:102BB0000CF041C0C552DB4FA880B980CB5DD4403A
:102BC000B7FC2AC081E090E0A0E0B0E00A2C04C08D
:102BD000880F991FAA1FBB1F0A94D2F78421952141
:102BE000A621B721892B8A2B8B2B39F0C756DB4FB7
:102BF00068817981C959D44006C0C956DB4F6881C4
:102C00007981C759D440CE0183579B4F0E948F26AC
:102C100091E0A91AB108D4CFCB56DB4F68817981F6
:102C2000C559D440CE0183579B4F0E948F26AFEFEA
:102C30008A1A9A0AB5CF60E0C157DB4F8881CF5816
:102C4000D4400E942F2F0F3FBFEF1B0711F40C94AD
:102C5000350DC357DB4F19830883CD58D4401092EC
:102C6000A60A1092A70A1092A80A1092A90A109216
:102C7000A50A1092A40A083010F00C94350DD80162
:102C8000BB27AA0FBB1FA655B54F89E193E211964A
:102C90009C938E93802F90E0FC013197E730F105F3
:102CA00050F58827E657FF4F8F4F0C94B24B809119
:102CB00069008C7F816080936900E89A0C94350DDF
:102CC00080916900837F846080936900E99A0C9405
:102CD000350D809169008F7C806180936900EA9A4C
:102CE0000C94350D809169008F7380648093690026
:102CF000EB9A0C94350D80916A008C7F81608093F3
:102D00006A00EC9A0C94350D80916A00837F846090
:102D100080936A00ED9A0C94350D80916A008F7C47
:102D2000806180936A00EE9A0C94350D80916A0060
:102D30008F73806480936A00EF9A0C94350D65E67A
:102D400073E0CE0186559B4F0E944E2D81110BC022
:102D50002ECB65E673E0CE018F549B4F0E944E2D23
:102D6000811129C02BCBBE0163577B4FCE0181540B
:102D70009B4F0E94A02ECA53DB4F08811981C65C6D
:102D8000D440BE016F547B4FCE0101960E94A02E0D
:102D900020E0AE0141545B4FB801CE0101960E9484
:102DA0001A3ACE0101960E946E2ECE0181549B4F9D
:102DB0000E946E2EFCCABE0163577B4FCE01815428
:102DC0009B4F0E94A02ECA53DB4F08811981C65C1D
:102DD000D440BE0166557B4FCE0101960E94A02EC5
:102DE00021E0AE0141545B4FB801CE0101960E9433
:102DF0001A3ACE0101960E946E2ECE0181549B4F4D
:102E00000E946E2EDBCA10921B0610921A061092B8
:102E1000DD0808956F927F928F929F92AF92BF923A
:102E2000CF92DF92EF92FF920F931F93CF93DF9396
:102E30008C0163E080ED98E00E945A2761E0809168
:102E4000DC080E942F2F8AE09DEB0197F1F760E0EC
:102E50008091DC080E942F2F8AE393E80197F1F715
:102E6000C0E0D0E032EFC32E3CE0D32E42EFA42EE0
:102E70004CE0B42EF80184819581C817D90708F079
:102E80004AC0D801ED91FC91309729F410924A0A7A
:102E9000EAE4FAE002C0EC0FFD1F8081982F092EB2
:102EA00092959025092E9695969590259F5F91FB7A
:102EB000EE24E0F8F12C37017694762C6624779492
:102EC0006794682A61E08091DC080E942F2FC60178
:102ED0000197F1F728E0822E912C77247394872DA7
:102EE000862111F060E001C061E08091DC080E9461
:102EF0002F2FC6010197F1F7770CB1E08B1A9108DB
:102F000071F760E08091DC080E942F2FC5010197C6
:102F1000F1F72196AFCF64E080ED98E0DF91CF919B
:102F20001F910F91FF90EF90DF90CF90BF90AF90E7
:102F30009F908F907F906F900C945A27CF92DF9242
:102F4000EF92FF920F931F93CF93DF9377FF1DC0F4
:102F50006A017B01EC016DE20E94372B8C01442752
:102F60005527BA014C195D096E097F092AE0CE0187
:102F70000E949D2B800F911FDF91CF911F910F9188
:102F8000FF90EF90DF90CF9008952AE0DF91CF91EE
:102F90001F910F91FF90EF90DF90CF900C949D2B9D
:102FA0008FB7F89410921606109217061092180612
:102FB000109219068FBF789408950F931F93CF93A3
:102FC000DF938B01BC018EEA98E00E94522BC9E48A
:102FD000DAE068818EEA98E00E94372BB8018EEA29
:102FE00098E00E94522B68818EEA98E0DF91CF91A1
:102FF0001F910F910C94372B8F929F92AF92BF929B
:10300000CF92DF92EF92FF92CF93DF936B017C011F
:103010009B01AC010E94504B882319F063ED74E0D2
:1030200027C046015701E894B7F82FEF3FEF4FE76D
:103030005FE7C501B4010E94504B81110DC02FEF15
:103040003FEF4FE75FE7C501B4010E94A54818169E
:103050001CF467ED74E00CC02FEF3FEF4FE75FE427
:10306000C701B6010E948E4A181684F46BED74E015
:103070008EEA98E0DF91CF91FF90EF90DF90CF90B4
:10308000BF90AF909F908F900C94882B2FEF3FEFC5
:103090004FE75FECC701B6010E94A54887FDE6CF68
:1030A00020E030E0A901C701B6010E94A54887FFD2
:1030B0000BC06DE28EEA98E00E94372BEC01F7FA24
:1030C000F094F7F8F09402C0C0E0D0E02AE037EDC9
:1030D00043EA5BE3C701B6010E9439484B015C013A
:1030E0000E945F496B017C010E948E499B01AC01EB
:1030F000C501B4010E9438484B015C012AE0B701C8
:10310000A6018EEA98E00E949D2BC80FD91F61E6A8
:1031100075E08EEA98E00E94882BC80FD91F20E046
:1031200030E040E251E4C501B4010E94E34A4B01A2
:103130005C010E9458496B01770FEE08FF08B70148
:10314000A6018EEA98E00E949E17C80FD91FC701FA
:10315000B6010E9490499B01AC01C501B4010E94D7
:10316000384820E030E040E251E40E94E34A0E9407
:103170005849AB01770F660B770B8EEA98E00E94F7
:103180009E178C0F9D1FDF91CF91FF90EF90DF90E6
:10319000CF90BF90AF909F908F9008952F923F92C5
:1031A0004F925F926F927F928F929F92AF92BF9257
:1031B000CF92DF92EF92FF920F931F93CF93DF9303
:1031C000CDB7DEB7A8970FB6F894DEBF0FBECDBF60
:1031D000162F682FCE0101960E94961F61E0812F65
:1031E0000E942F2F68EE73E080E090E00E94C02FD5
:1031F000412C512C32018E010C5F1F4F7E018BE15F
:10320000E80EF11C4E0193E2890E911CE8E0EE0DF0
:10321000EEA3CE010F969CA38BA3B301A2018EEA6D
:1032200098E00E949E179BA1975F9DA38E858111B8
:1032300085C0CE0101960E94601F811125C01C86A9
:103240001E861D866FED74E08EEA98E00E94F32BD7
:103250001C861E861D86FE013C961292E017F10721
:10326000E1F768EB7BE080E090E00E94C02FEFEF99
:103270004E1A5E0A6E0A7E0AF3E04F16510461048C
:10328000710409F42FC1C9CF40E060EFCE0101966F
:103290000E94F11ECC24C394212C312CDD24D39424
:1032A000CE0101960E949E1E682FCE0101966FA34B
:1032B0000E949E1E6FA1613019F48130B9F435C0AF
:1032C000222D30E068131BC08C85D81638F4F80125
:1032D000E20FF31F80818C2149F402C0D81631F02F
:1032E00060E088E08D1550F0DD8608C0F801E20D41
:1032F000F11D80818C29808361E009C03D2CF8019B
:10330000E20FF31F90818C2D809589238083CE015D
:1033100001960E94C21ED394CC0C19F42394CC24A1
:10332000C39497E0921508F0BBCFE0E4ED1530F4BC
:103330003C863110D1C081E08E87CEC01C861E86AF
:103340001D8680E0D801F7019D919193E815F9055C
:10335000D9F7882309F476CF62EF74E08EEA98E01B
:103360000E94052C670160E28EEA98E00E947022BC
:10337000F60141916F0150E060E070E020E18EEADB
:1033800098E00E949D2BFEA1FC11EDCF8B8D823227
:1033900041F0883231F0803109F0A4C0DD24D394AB
:1033A00001C0D12CCE0101960E94601FB701CE0151
:1033B00001960E94331F40E064E4CE0101960E9412
:1033C000F11E64E670E080E090E00E94C02FCE0124
:1033D00001960E94601FB701CE0101960E94331F23
:1033E00040E06EEBCE0101960E94F11ECE010F96D9
:1033F0005C0148E050E022242394C12CCE010196C8
:103400004FA358A70E949E1E4FA158A58111C22804
:10341000220C4150510991F7F501C1925F01FDA1C4
:10342000FA11E7CF688970E0762F66278F85682BC1
:10343000DD2089F083E0660F771F8A95E1F78E899A
:103440008031A9F42D898CE090E0821B9109607F86
:10345000680F791F0CC08B89807611F4687F07C0D4
:10346000803211F46C7F03C0803409F46E7F072E24
:10347000000C880B990B0E94904920E030E040E856
:103480005DE30E94E34A5B016C0168EF74E08EEA41
:1034900098E00E94052CC601B5010E94FC176AE065
:1034A00075E08EEA98E00E94052C26E636E646EEA8
:1034B0005FE3C601B5010E94E34A20E030E040E04E
:1034C00052E40E9439480E94FC1765E175E08EEADB
:1034D00098E00E94F32BAACE8C81882309F42ECF8A
:1034E00081E030CFA8960FB6F894DEBF0FBECDBFF7
:1034F000DF91CF911F910F91FF90EF90DF90CF90D0
:10350000BF90AF909F908F907F906F905F904F9003
:103510003F902F900895BF92CF92DF92EF92FF924B
:103520000F931F93CF93DF93CDB7DEB76A970FB694
:10353000F894DEBF0FBECDBF8C01CE0101960E9474
:10354000961FD80188E0E0E0815039F09D91E9278D
:10355000F0E0E655FD4FE491F7CFD80117968C9136
:10356000E81739F061E275E08EEA98E00E94F32BEB
:1035700066C0CE0101960E94601FB801CE0101967F
:103580000E94331F41E064E4CE0101960E94F11EC7
:1035900068EE73E080E090E00E94C02FCE010196BB
:1035A0000E94601FB801CE0101960E94331F40E0C7
:1035B0006EEBCE0101960E94F11E8E01015F1F4F3E
:1035C00029E0B22EB00E98E0C92ED12CEE24E3945F
:1035D000F12CCE0101960E949E1E8111FE28EE0C58
:1035E000B1E0CB1AD108A9F7F801F1928F01BE1210
:1035F000EACF688970E0762F66278F85682B8B89E4
:10360000807611F4687F07C0803211F46C7F03C0AC
:10361000803409F46E7F072E000C880B990B0E94F2
:10362000904920E030E040E85DE30E94E34A0E94D8
:10363000FC176091490A8EEA98E00E94372B6A963F
:103640000FB6F894DEBF0FBECDBFDF91CF911F91B3
:103650000F91FF90EF90DF90CF90BF90089565E6B7
:1036600073E00E944E2D91E0811190E0892F089522
:10367000CF92DF92EF92FF920F931F93CF93DF933E
:103680008C017B016A01C0E0D0E0CE15DF059CF51E
:10369000F80124813581F601848195812817390745
:1036A00029F5F80180819181F6016081718100978F
:1036B00019F061157105B1F46115710551F0232BF5
:1036C000E1F0FB01208130E088279927821B930BD2
:1036D0000BC0009791F0232B81F0FC012081822FF9
:1036E00090E002C00E94FF47892B39F02196F7E055
:1036F000CF0ED11CCACFCFEFDFEFCE01DF91CF913C
:103700001F910F91FF90EF90DF90CF900895CF928F
:10371000DF92EF92FF920F931F93CF93DF93CDB77A
:10372000DEB727970FB6F894DEBF0FBECDBF8B0173
:103730007A016901BC01CE0101960E94A02EA6016A
:10374000B701CE0101960E94381B7C01CE01019683
:103750000E946E2E8FEFE816F806B9F08FEFE81A88
:10376000F80A27E02E9DC0012F9D900D1124F6012F
:10377000E80FF91F80819181009719F00E94E344BE
:1037800003C060E070E0CB018B01C80127960FB643
:10379000F894DEBF0FBECDBFDF91CF911F910F9187
:1037A000FF90EF90DF90CF900895AF92BF92CF92AD
:1037B000DF92FF920F931F93CF93DF931F92CDB7AA
:1037C000DEB75C018A01FC019481977028E080E0FB
:1037D000392F3170880F832B96952150C9F7F50149
:1037E0008583C50169830E94A6376981662311F02C
:1037F00025E001C023E0622FC50129830E94F11C4E
:103800002981811156C06501F5E0CF0ED11CA601BA
:10381000622FC5010E94953780EFF82EF501808157
:103820000E94062F892B59F0FA94FF2009F440C01A
:1038300063E070E080E090E00E94C02FEFCF61E095
:10384000C5010E94AE1CF82EA601682FC5010E947A
:1038500095378F2D90E0F8019183808361E0C50159
:103860000E94AE1CF82EA601682FC5010E94953754
:1038700020E030E0F80130812F293183208360E09F
:10388000C5010E94AE1C282F88E090E0322F3170D5
:10389000990F932B26958150C9F7F5012581921731
:1038A00041F08FEF9FEFF8019183808382E001C0A8
:1038B00083E00F90DF91CF911F910F91FF90DF90E8
:1038C000CF90BF90AF900895909115069111FCCFC5
:1038D00022E02093150621E0209314062FEF209379
:1038E00013061092120640931106FB0161EF75E07A
:1038F000DB012A2F261B241718F421912D93F9CFD1
:103900001092F0052091F005880F822B8093F0052E
:103910008091EF05813041F41092EF058091F00520
:103920008093BB0085EC01C085EE8093BC00809144
:1039300015068230E1F3809113068F3F69F0809184
:103940001306803231F080911306803321F094E029
:1039500003C092E001C093E0892F0895DF92EF92B7
:10396000FF920F931F93CF93DF93EC01D62E08E0C5
:1039700010E061E089810E942F2F88810E94062F2C
:10398000110F7C01E12A1E2D60E089810E942F2FFA
:10399000015079F761E088810E945F2F91E06D2DE1
:1039A000692788810E942F2F61E089810E942F2F33
:1039B00086E090E00197F1F760E089810E942F2F67
:1039C00060E088810E945F2F61E088810E942F2F34
:1039D0008E2DDF91CF911F910F91FF90EF90DF908F
:1039E0000895DF92EF92FF920F931F93CF93DF938F
:1039F000EC01D62E61E088810E945F2F18E000E87C
:103A000086E0E82EF12C602F6D2188810E942F2FF7
:103A100061E089810E942F2FC7010197F1F760E0D3
:103A200089810E942F2F0695115069F760E08881E7
:103A30000E945F2F61E088810E942F2F61E08981C1
:103A40000E942F2F86E090E00197F1F788810E9475
:103A5000062F8C0160E089810E942F2F81E0012BCD
:103A600009F480E0DF91CF911F910F91FF90EF90CB
:103A7000DF9008952F923F924F925F926F927F92C4
:103A80008F929F92AF92BF92CF92DF92EF92FF926E
:103A90000F931F93CF93DF9300D01F92CDB7DEB764
:103AA0007C018B011A013C832B83AE014F5F5F4F7A
:103AB00060E00E94D51B81112AC169817A81F701DA
:103AC000248180E090E020FF07C00E948E492AE018
:103AD00037ED43E25DE306C00E948E492AE037EDF0
:103AE00043E25CE30E94E34A26E636E640E252E423
:103AF0000E943848F8016083718382839383AE010A
:103B00004F5F5F4F61E0C7010E94D51B8111FFC06D
:103B1000F80180809180A280B38069817A81F70169
:103B2000248180E090E020FF35C00E948E496B0127
:103B30007C012DEB32E546E15FE30E94E34A25EC90
:103B40003EEF42E050E40E9438482B013C012BE359
:103B500035E246ED59EBC701B6010E94E34AA701E1
:103B600096010E94E34A9B01AC01C301B2010E948D
:103B700039482B013C0120E030E048EC51E4C5011C
:103B8000B4010E9438484B015C012CEA35EC47EA4D
:103B90005AE334C00E948E496B017C012DEB32E563
:103BA00046E15DE30E94E34A25EC3EEF42E050E44B
:103BB0000E9438482B013C0126EF34E246ED55EBDC
:103BC000C701B6010E94E34AA70196010E94E34A99
:103BD0009B01AC01C301B2010E9439482B013C0199
:103BE00020E030E048EC51E4C501B4010E943848BF
:103BF0004B015C012CEA35EC47EA58E3C701B601FA
:103C00000E94E34A2AE037ED43E25CE30E94394830
:103C10009B01AC01C501B4010E94E34AA3019201DA
:103C20000E9439486B017C0120E030E048EC52E40E
:103C30000E948E4A181694F02DEC3CEC4CEC5DE39F
:103C4000C701B6010E94A54887FF0EC09DECC92E92
:103C50009CECD92EED2C9DE3F92E06C0C12CD12C65
:103C600088ECE82E82E4F82EF101C082D182E28253
:103C7000F382F80180809180A280B38020E030E060
:103C800048EC52E4C701B6010E94AA480E949B4A30
:103C90006B017C0123EC35EF4CE851E4C501B40124
:103CA0000E94E34A2B013C0128EB3EE143E753E449
:103CB000C501B4010E9439489B01AC01C301B201A6
:103CC0000E94AA489B01AC01C701B6010E94394875
:103CD0006B017C0128EB3EE143E753E40E94E34A99
:103CE0004B015C01A701960163EC75EF8CE891E450
:103CF0000E9438489B01AC01C501B4010E94AA484A
:103D0000EB81FC81608371838283938380E00F90D9
:103D10000F900F900F90DF91CF911F910F91FF9017
:103D2000EF90DF90CF90BF90AF909F908F907F905B
:103D30006F905F904F903F902F900895FC0190817D
:103D40000180F281E02DF8948181892B8183228189
:103D5000892F809528232283A6E0B0E01197F1F700
:103D6000218182238183A2E2B0E01197F1F7808163
:103D70007894EEECF0E03197F1F7982381E009F4C4
:103D800080E00895FC0190810180F281E02D892F6F
:103D9000809560FF12C0F894228182238283818102
:103DA000892B8183A2E2B0E01197F1F78281982BF1
:103DB0009283789486ED90E011C0F894228182235A
:103DC00082838181892B8183AEEFB0E01197F1F777
:103DD0008281982B928378948EE090E00197F1F79E
:103DE0000895CF92DF92EF92FF920F931F93CF939C
:103DF000DF931F92CDB7DEB76C01E62E08E010E02E
:103E0000FF24F39461E08F2D8E2109F460E0C60158
:103E100049830E94C21EFF0C0150110949810115FE
:103E2000110581F7411115C0F894D6011196ED9155
:103E3000FC91129791818C918095892381831196B1
:103E4000ED91FC91129792818C91809589238283C8
:103E500078940F90DF91CF911F910F91FF90EF9089
:103E6000DF90CF900895CF92DF92EF92FF920F9361
:103E70001F93CF93DF931F92CDB7DEB78C01F62E41
:103E800040E065E579830E94F11ECF2C7981D72E21
:103E9000760188E0E80EF11CF60161916F0140E0C7
:103EA000C8010E94F11ECE14DF04B1F70F90DF911C
:103EB000CF911F910F91FF90EF90DF90CF900895D9
:103EC000FC0190810180F281E02DF8948181292FFD
:103ED00020958223818378948DE742E050E08150E1
:103EE00021F1DA011197F1F730813923C1F3F89408
:103EF0008281822382838181892B81837894AAE7BE
:103F0000B7E01197F1F7F894818128232183A2E18A
:103F1000B1E01197F1F78081982381E009F080E00A
:103F20007894E2E6F6E03197F1F708950F931F9346
:103F3000CF93DF93EC01162F60E0812F0E945F2F5B
:103F4000612F70E0FB01E453FB4FE491E883FB0138
:103F5000EA57FB4FE491F0E0EE0FFF1FE459FB4FEF
:103F6000859194919A8389831B861D861C86FE0108
:103F70003B968E010D5F1F4F1292E017F107E1F79C
:103F8000DF91CF911F910F910895CF93C62F672F87
:103F9000FC01808191E09093B30B8093D50B10923C
:103FA000B40B1092D60B8CE196E00E9447226C2F46
:103FB0008CE196E00E944722CF910C941231BF927F
:103FC000CF92DF92EF92FF920F931F93CF93DF93E5
:103FD00000D000D0CDB7DEB78C0160E074E20E9463
:103FE000C51F64E170E080E090E00E94C02F66E0B1
:103FF000F80180810E9420331092B20B8093B10BA4
:10400000863009F059C0CE0101966C017C0186E032
:10401000B82EBC0C8CE196E00E94EE21F701819352
:104020007F01BE12F7CFB980EA80FB80C6010E94F3
:104030000933F81241C0DC80FD80CE80CE010496A9
:104040000E940933C81238C06E2D70E07B2980E0D1
:1040500090E00E948E4920E030E04FE253E40E945D
:10406000E34A20E03FEF4FE757E40E94AA4820E0F0
:1040700030E044E352E40E943848F80165837683D7
:10408000878390876F2D70E07D2980E090E00E940B
:104090008E4920E030E048EC52E40E94E34A20E000
:1040A0003FEF4FE757E40E94AA48F801618372830B
:1040B0008383948381E001C080E026960FB6F89454
:1040C000DEBF0FBECDBFDF91CF911F910F91FF904B
:1040D000EF90DF90CF90BF9008951F920F920FB690
:1040E0000F9211240BB60F922F933F934F935F9330
:1040F0006F937F938F939F93AF93BF93EF93FF93B0
:104100008091B900887F803609F49CC068F58832B8
:1041100009F45BC090F4803109F454C038F488236A
:1041200009F4F3C0883009F44DC0F3C0883109F4B4
:104130004CC0803209F45DC0ECC0803409F468C022
:1041400048F4803309F455C0883309F0E2C0809305
:104150001306D5C0803509F44FC0883509F45DC019
:10416000883409F0D6C0D3C0883909F4C4C0A8F493
:10417000883709F467C038F4883609F463C080379B
:1041800009F460C0C6C0883809F4B5C0803909F4A4
:104190005FC0803809F0BDC05BC0803B09F483C0BC
:1041A00038F4803A09F466C0883A09F47CC0B1C09A
:1041B000803C09F4A4C0883C09F4A1C0883B09F400
:1041C00087C0A7C08091F00510C090911206809121
:1041D0001106981770F5E091120681E08E0F80931A
:1041E0001206F0E0EF50FA4F80818093BB0085EC1F
:1041F00083C0809313068BC0E091120681E08E0F7E
:10420000809312068091BB00F0E0EF50FA4F80835C
:1042100090911206809111066BC0E091120681E028
:104220008E0F809312068091BB00F0E0EF50FA4FA2
:1042300080838091140681116AC081E08093EF052C
:1042400084EA5EC083E0809315061092A10ACFCF66
:104250008091A10A803208F04EC0E091A10A81E06D
:104260008E0F8093A10A8091BB00F0E0EF57F54FCD
:104270008083BDCF8091A10A803230F4E091A10A01
:10428000F0E0EF57F54F10820E94DE246091A10A02
:1042900070E0E0917F0AF091800A81E89AE0199538
:1042A0001092A10A2CC084E08093150610927E0A19
:1042B00010927B0AE0917C0AF0917D0A1995809119
:1042C0007B0A811105C081E080937B0A10925B0A12
:1042D000E0917E0A81E08E0F80937E0AF0E0E55A3D
:1042E000F54F80818093BB0090917E0A80917B0A7C
:1042F000981708F47CCF85E88093BC000AC085EC51
:104300008093BC001092150604C0109213060E9400
:10431000DE24FF91EF91BF91AF919F918F917F919B
:104320006F915F914F913F912F910F900BBE0F9026
:104330000FBE0F901F901895FC01158620911A064C
:1043400080911B06281769F030E0F901E654F54F1B
:1043500080812F5F3F4F2F73332720931A0690E001
:1043600008958FEF9FEF0895E0911A0680911B0644
:10437000E81741F0F0E0E654F54F8081082E000C7C
:10438000990B08958FEF9FEF0895FC0185858111AA
:104390000EC080911B0690E0805C9F4F20911A0612
:1043A000821B910960E470E00E949E4B08958FEF9C
:1043B0009FEF089581E090E0089508950895E091B9
:1043C000B20B8091B10BE81730F4F0E0EF56F44FE8
:1043D000808190E008958FEF9FEF08959091B20B48
:1043E0008091B10B981750F4E92FF0E0EF56F44F9D
:1043F000208130E09F5F9093B20B02C02FEF3FEF20
:10440000C90108958091B10B90E02091B20B821BFD
:1044100091090895CF92DF92EF92FF920F931F932D
:10442000CF93DF937C018A018091B30B882389F0BD
:10443000EB016B01C40ED51ECC15DD05F1F06991C1
:10444000D701ED91FC910190F081E02DC701199504
:10445000F3CF842F413288F490911506943069F49B
:1044600040937B0AFB012BE53AE0D9019A2F921B7E
:10447000981718F491919D93F9CFC801DF91CF91CE
:104480001F910F91FF90EF90DF90CF9008952091B2
:10449000B30B2223C9F02091D60B203240F021E04B
:1044A00030E0FC013383228380E090E00895809126
:1044B000B40BE82FF0E0EB54F44F60838F5F8093F0
:1044C000B40B8093D60B09C080911506843029F473
:1044D00081E080937B0A60935B0A81E090E008951D
:1044E0000F931F93CF93DF93FC01A685B7858D01B2
:1044F000005C1F4FE8018881998101968F7399278D
:10450000AD014E5B5F4FEA01288139818217930725
:10451000D1F3E80128813981A20FB31F6C93A685DE
:10452000B785A05CBF4F11969C938E93A689B789DF
:104530002C9181E090E0078C02C0880F991F0A94AB
:10454000E2F7822B8C9381E081A30488F589E02D2A
:1045500080818064808381E090E0DF91CF911F9122
:104560000F910895FC0181A1882329F0A489B589C0
:104570008C9186FFFBCF11A20895FC01A485B5851F
:10458000FD01E05CFF4F2081318132968081918175
:104590002817390779F080819181A80FB91F8C9174
:1045A000208131812F5F3F4F2F7333273183208349
:1045B00090E008958FEF9FEF0895DC011C96ED9138
:1045C000FC911D97DF01A05CBF4F2D913C9111978D
:1045D00012968D919C9111972817390739F08D917A
:1045E0009C91E80FF91F808190E008958FEF9FEF75
:1045F0000895FC0124853585F901E05CFF4F808139
:104600009181329620813181821B930B8F73992780
:1046100008958EEA98E00E94F92284E098E00E94D2
:10462000F9228AE597E00E94F92280EB96E00C944B
:10463000F9222F923F924F925F926F927F928F92C8
:104640009F92AF92BF92CF92DF92EF92FF920F9321
:104650001F93CF93DF93CDB7DEB765970FB6F8946E
:10466000DEBF0FBECDBF0E949B2F6B017C018091EE
:10467000880B9091890B2601481A590A2DEC421695
:1046800020E1520608F4F6C08091020B9091030BD2
:10469000A201481B590BCA0157FF03C09195819590
:1046A0009109883C91050CF0E1C08091000B90913C
:1046B000010B01969093010B8093000B029709F078
:1046C000D5C09AEA692E93E0792E01E010E020909F
:1046D000FE0A3090FF0A3B862A8649E050E0B3018B
:1046E000CE0101960E9416458C816B81681708F4F3
:1046F000682F70E08091020B9091030B0E948A4B0F
:104700009B014091190250911A02649FC001659F5C
:10471000900D749F900D112464E670E00E948A4B06
:104720008985811103C0A1E0B0E002C0A2E0B0E041
:104730008D81829FA001839F500D11245D874C873E
:104740008E81829F1001839F300C11243F862E861C
:104750008F81829FA001839F500D1124598B488B1C
:104760008885829F1001839F300C11243B8A2A8AFE
:10477000FD01EE0FFF1FEE5FF44F812C912C5401D1
:104780004A855B85415051095D8B4C8B8C899D8995
:10479000A817B90708F040C0880C991CAA1CBB1CBC
:1047A00080819181AC012C843D844219530957FFCB
:1047B00003C05195419551094617570770F442813E
:1047C00053812E843F844219530957FF03C05195EA
:1047D0004195510946175707E0F028883988821912
:1047E000930997FF03C091958195910986179707C3
:1047F00080F5828193814A895B89841B950B97FFA1
:1048000003C09195819591098617970710F56894D3
:1048100080F812963496BACF4A855B8548305105A8
:10482000C0F08092A60A9092A70AA092A80AB0921D
:10483000A90A1C01369427943092A50A2092A40A52
:104840003093FD0A2093FC0A1093FB0A0093FA0AA6
:1048500009C00F5F1F4F59E0650E711C093011052B
:1048600009F035CF1092010B1092000B1092FF0A45
:104870001092FE0A8091FE0A9091FF0A83349105FE
:1048800040F01092FF0A1092FE0A1092010B109253
:10489000000B8091FE0A9091FF0A9C012F5F3F4F11
:1048A0003093FF0A2093FE0A880F991FFC01EE5FE8
:1048B000F44F51824082C092880BD092890BE092D3
:1048C0008A0BF0928B0B65960FB6F894DEBF0FBE85
:1048D000CDBFDF91CF911F910F91FF90EF90DF90AF
:1048E000CF90BF90AF909F908F907F906F905F9090
:1048F0004F903F902F900895BF92CF92DF92EF920A
:10490000FF920F931F93CF93DF930091A20A109110
:10491000A30A0115110509F447C0F80184850E9416
:10492000062F892B09F440C086E796E00197F1F73E
:1049300088E0E82EF12CD1E0C0E092EFC92E9CE097
:10494000D92EF1E0EF1AF10881F0C6010197F1F7D5
:10495000BD2EB094F80184850E94062F892B11F496
:10496000CD2B01C0CB21DD0FECCF82EF9CE0FC0111
:104970003197F1F70197F1F780911B0690E09C01C8
:104980002F5F3F4F2F73332740911A0650E02417B3
:10499000350721F481E0F801858706C0FC01E65463
:1049A000F54FC08320931B06DF91CF911F910F918C
:1049B000FF90EF90DF90CF90BF90089585ED8093AA
:1049C000BC008091BC0084FDFCCF109215060895B8
:1049D000863308F0865390917B00282F2870977FAC
:1049E000922B90937B008770806480937C008091F1
:1049F0007A00806480937A0080917A0086FDFCCFF3
:104A0000809178002091790090E0922B08951F9278
:104A10000F920FB60F9211240BB60F922F933F9364
:104A20004F935F936F937F938F939F93AF93BF93B6
:104A3000EF93FF938091B80A9091B90A892B29F0DE
:104A4000E091B80AF091B90A1995FF91EF91BF91E1
:104A5000AF919F918F917F916F915F914F913F9116
:104A60002F910F900BBE0F900FBE0F901F901895B7
:104A70001F920F920FB60F9211240BB60F922F9325
:104A80003F934F935F936F937F938F939F93AF93D6
:104A9000BF93EF93FF938091B60A9091B70A892B49
:104AA00029F0E091B60AF091B70A1995FF91EF91BC
:104AB000BF91AF919F918F917F916F915F914F9136
:104AC0003F912F910F900BBE0F900FBE0F901F9034
:104AD00018951F920F920FB60F9211240BB60F92DA
:104AE0002F933F934F935F936F937F938F939F93F6
:104AF000AF93BF93EF93FF938091AC0A9091AD0A6F
:104B0000892B29F0E091AC0AF091AD0A1995FF913B
:104B1000EF91BF91AF919F918F917F916F915F9135
:104B20004F913F912F910F900BBE0F900FBE0F90A2
:104B30001F9018951F920F920FB60F9211240BB66B
:104B40000F922F933F934F935F936F937F938F9326
:104B50009F93AF93BF93EF93FF938091AA0A909195
:104B6000AB0A892B29F0E091AA0AF091AB0A1995BA
:104B7000FF91EF91BF91AF919F918F917F916F9135
:104B80005F914F913F912F910F900BBE0F900FBEF1
:104B90000F901F9018951F920F920FB60F9211242D
:104BA0000BB60F922F933F934F935F936F937F9327
:104BB0008F939F93AF93BF93EF93FF938091B40A2A
:104BC0009091B50A892B29F0E091B40AF091B50AC9
:104BD0001995FF91EF91BF91AF919F918F917F9127
:104BE0006F915F914F913F912F910F900BBE0F905E
:104BF0000FBE0F901F9018951F920F920FB60F9235
:104C000011240BB60F922F933F934F935F936F93A3
:104C10007F938F939F93AF93BF93EF93FF93809175
:104C2000B20A9091B30A892B29F0E091B20AF0916F
:104C3000B30A1995FF91EF91BF91AF919F918F9119
:104C40007F916F915F914F913F912F910F900BBE8C
:104C50000F900FBE0F901F9018951F920F920FB6D6
:104C60000F9211240BB60F922F933F934F935F93A4
:104C70006F937F938F939F93AF93BF93EF93FF9324
:104C80008091B00A9091B10A892B29F0E091B00A85
:104C9000F091B10A1995FF91EF91BF91AF919F915A
:104CA0008F917F916F915F914F913F912F910F90D5
:104CB0000BBE0F900FBE0F901F9018951F920F9272
:104CC0000FB60F9211240BB60F922F933F934F9371
:104CD0005F936F937F938F939F93AF93BF93EF9364
:104CE000FF938091AE0A9091AF0A892B29F0E09151
:104CF000AE0AF091AF0A1995FF91EF91BF91AF9174
:104D00009F918F917F916F915F914F913F912F91E3
:104D10000F900BBE0F900FBE0F901F901895FF9233
:104D20000F931F93CF93DF93EC01F62E072F8E8501
:104D3000882319F060E011E002C061E010E08A8190
:104D40000E942F2F8E819F81F89EF001F99EF00D19
:104D50001124319739F0EE0FFF1FEE0FFF1F32972E
:104D60003197F1F7612F8A810E942F2F2E813F8189
:104D7000029FC001039F900D1124019739F0880F05
:104D8000991F880F991F02970197F1F7DF91CF9133
:104D90001F910F91FF90089591E09093B30B90E7CE
:104DA0009093D50B1092B40B1092D60B61E070E08B
:104DB00001C0660F8A95EAF78CE196E00E944722CF
:104DC0000C9412311F920F920FB60F9211240BB652
:104DD0000F922F933F934F935F936F937F938F9394
:104DE0009F93AF93BF93EF93FF930E947C24FF9117
:104DF000EF91BF91AF919F918F917F916F915F9153
:104E00004F913F912F910F900BBE0F900FBE0F90BF
:104E10001F9018951F920F920FB60F9211240BB688
:104E20000F922F933F934F935F936F937F938F9343
:104E30009F93AF93BF93EF93FF930E947C24FF91C6
:104E4000EF91BF91AF919F918F917F916F915F9102
:104E50004F913F912F910F900BBE0F900FBE0F906F
:104E60001F9018951F920F920FB60F9211240BB638
:104E70000F922F933F934F935F936F937F938F93F3
:104E80009F93AF93BF93EF93FF930E947C24FF9176
:104E9000EF91BF91AF919F918F917F916F915F91B2
:104EA0004F913F912F910F900BBE0F900FBE0F901F
:104EB0001F901895CF93DF93EC01623009F04AC040
:104EC00060E08C850E945F2F61E08C850E945F2FDF
:104ED00060E08C850E942F2F9C8586EF890F84309F
:104EE00058F02EEC290F243038F022EC290F28300E
:104EF00040F0A0E0B0E007C0ABE6B0E0EBE6F0E0E9
:104F000007C0ADE6B0E0283008F012C1EDE6F0E0F1
:104F10003081843018F42AEF290F0BC0923389F0C6
:104F2000933389F0943389F082EC890F883078F4D8
:104F3000282F81E090E001C0880F2A95EAF780953C
:104F400007C087EF05C08BEF03C08DEF01C08EEF68
:104F50008323ECC0633051F460E08C850E945F2FA6
:104F600061E08C850E945F2FF894FAC0643009F0EC
:104F700064C060E08C850E942F2F60E08C850E94C9
:104F80005F2F78948C8526EF280F243060F09EECFC
:104F9000980F943040F092EC980F983008F4CBC002
:104FA000A0E0B0E0CAC0A8E6B0E0E8E6F0E090819A
:104FB000243018F08E53883010F081E001C084E076
:104FC000892B8C939C8586EF890F843058F02EECCA
:104FD000290F243038F022EC290F283040F0A0E0CF
:104FE000B0E007C0ABE6B0E0EBE6F0E007C0ADE64E
:104FF000B0E0283008F0A7C0EDE6F0E02081843072
:1050000010F496500BC0923379F0933379F09433C7
:1050100079F082EC890F883068F4982F81E001C024
:10502000880F9A95EAF707C088E005C084E003C0BE
:1050300082E001C081E0822B79C060E08C850E9413
:105040002F2F60E08C850E945F2F9C8586EF890F53
:10505000843058F02EEC290F243038F022EC290F40
:10506000283040F0A0E0B0E007C0ABE6B0E0EBE6EF
:10507000F0E007C0ADE6B0E0283008F067C0EDE62C
:10508000F0E03081843018F42AEF290F0BC09233FE
:1050900089F0933389F0943389F082EC890F88305A
:1050A00078F4282F81E090E001C0880F2A95EAF774
:1050B000809507C087EF05C08BEF03C08DEF01C05F
:1050C0008EEF83238C938C8596EF980F943058F055
:1050D0002EEC280F243038F022EC280F283030F046
:1050E000E0E0F0E005C0EBE6F0E002C0EDE6F0E065
:1050F0002081211135C0943058F02EEC280F243037
:1051000038F022EC280F283020F1A0E0B0E023C0D6
:10511000A8E6B0E0E8E6F0E02081943018F08E5385
:10512000883010F08EEF01C08BEF82238C9318C073
:10513000E0E0F0E0EDCEA8E6B0E0983008F435CF3E
:10514000E0E0F0E034CFE0E0F0E058CFE0E0F0E085
:1051500098CFA8E6B0E02830E8F2E0E0F0E0DCCF5D
:10516000DF91CF9108951F920F920FB60F921124E5
:105170000BB60F922F933F938F939F93EF93FF93D1
:10518000209168063091690680916A0690916B06BD
:105190002817390731F4809131018F7D80933101D7
:1051A00014C0E0916A06F0916B06E85DF94F20812A
:1051B00080916A0690916B0601968F739927909360
:1051C0006B0680936A0620933601FF91EF919F91C1
:1051D0008F913F912F910F900BBE0F900FBE0F90AC
:1051E0001F9018951F920F920FB60F9211240BB6B5
:1051F0000F922F933F938F939F93EF93FF93209161
:105200001207309113078091140790911507281702
:10521000390731F48091D1008F7D8093D10014C083
:10522000E0911407F0911507EE52F94F208180911B
:1052300014079091150701968F739927909315077E
:10524000809314072093D600FF91EF919F918F9147
:105250003F912F910F900BBE0F900FBE0F901F909C
:1052600018951F920F920FB60F9211240BB60F9242
:105270002F933F938F939F93EF93FF932091BC07BE
:105280003091BD078091BE079091BF07281739075D
:1052900031F48091C9008F7D8093C90014C0E091E2
:1052A000BE07F091BF07E458F84F20818091BE07F8
:1052B0009091BF0701968F7399279093BF078093B2
:1052C000BE072093CE00FF91EF919F918F913F9168
:1052D0002F910F900BBE0F900FBE0F901F9018953F
:1052E0001F920F920FB60F9211240BB60F922F93AD
:1052F0003F938F939F93EF93FF9320916608309194
:10530000670880916808909169082817390731F477
:105310008091C1008F7D8093C10014C0E091680826
:10532000F0916908EA5DF74F2081809168089091BB
:10533000690801968F73992790936908809368088C
:105340002093C600FF91EF919F918F913F912F91F4
:105350000F900BBE0F900FBE0F901F9018951F92CD
:105360000F920FB60F9211240BB60F922F933F930B
:105370004F935F936F937F938F939F93AF93BF935D
:10538000EF93FF938091300182FD07C08091360139
:105390006CE676E00E941D2B02C080913601FF91E1
:1053A000EF91BF91AF919F918F917F916F915F919D
:1053B0004F913F912F910F900BBE0F900FBE0F900A
:1053C0001F9018951F920F920FB60F9211240BB6D3
:1053D0000F922F933F934F935F936F937F938F938E
:1053E0009F93AF93BF93EF93FF938091D00082FD83
:1053F00007C08091D60066E177E00E941D2B02C0B5
:105400008091D600FF91EF91BF91AF919F918F91C5
:105410007F916F915F914F913F912F910F900BBEB4
:105420000F900FBE0F901F9018951F920F920FB6FE
:105430000F9211240BB60F922F933F934F935F93CC
:105440006F937F938F939F93AF93BF93EF93FF934C
:105450008091C80082FD07C08091CE0060EC77E0AB
:105460000E941D2B02C08091CE00FF91EF91BF9151
:10547000AF919F918F917F916F915F914F913F91EC
:105480002F910F900BBE0F900FBE0F901F9018958D
:105490001F920F920FB60F9211240BB60F922F93FB
:1054A0003F934F935F936F937F938F939F93AF93AC
:1054B000BF93EF93FF938091C00082FD07C080915E
:1054C000C6006AE678E00E941D2B02C08091C600EB
:1054D000FF91EF91BF91AF919F918F917F916F91CC
:1054E0005F914F913F912F910F900BBE0F900FBE88
:1054F0000F901F901895CF92DF92EF92FF920F932B
:105500001F93CF93DF936C01EB017B01E40EF51E3B
:1055100000E010E0CE15DF0561F06991D601ED9154
:10552000FC910190F081E02DC6011995080F191F1B
:10553000F1CFC801DF91CF911F910F91FF90EF90B4
:10554000DF90CF900895089590E0FC013197E1310C
:10555000F10508F04AC08827EF56FF4F8F4F0C9493
:10556000B24B809180008F7703C0809180008F7D47
:1055700080938000089584B58F7702C084B58F7DB5
:1055800084BD08958091B0008F7703C08091B000F2
:105590008F7D8093B0000895809190008F7707C031
:1055A000809190008F7D03C080919000877F8093D1
:1055B000900008958091A0008F7707C08091A0008F
:1055C0008F7D03C08091A000877F8093A000089505
:1055D000809120018F7707C0809120018F7D03C0CB
:1055E00080912001877F8093200108950F931F935E
:1055F000CF93DF93EC0188819981009729F02A816C
:105600003B812617370788F48B016F5F7F4F0E941D
:10561000F046009761F0998388831B830A832C816D
:105620003D81232B11F4FC01108281E001C080E058
:10563000DF91CF911F910F910895FB01E05CFF4F27
:10564000208131812F5F3F4F2F733327DB01AE5B0A
:10565000BF4F4D915C912417350741F04081518136
:10566000DB01A40FB51F8C93318320830895DC01E7
:10567000ED91FC910190F081E02D19940F931F930F
:10568000CF93DF93EC016DE00E94372B8C016AE031
:10569000CE010E94372B800F911FDF91CF911F9178
:1056A0000F910895CF92DF92EF92FF920F931F9385
:1056B000CF93DF936C017B01C0E0D0E000E010E00D
:1056C000F70184819581C817D907C0F4D601ED91FF
:1056D000FC910190F081E02DD7012D913C91211595
:1056E000310529F0D901AC0FBD1F6C9101C060E0FC
:1056F000C6011995080F191F2196E2CFC801DF9145
:10570000CF911F910F91FF90EF90DF90CF90089570
:105710006115710579F0FB0101900020E9F73197DF
:10572000AF01461B570BDC01ED91FC910280F38128
:10573000E02D199480E090E008958F929F92AF92AF
:10574000BF92CF92DF92EF92FF920F931F93CF936E
:10575000DF93CDB7DEB7A1970FB6F894DEBF0FBECB
:10576000CDBF6C01142FE52FCB01022F19A22230DF
:1057700008F40AE07E0121E2E20EF11C802E912C59
:10578000A12CB12C612F7E2FA50194010E94874589
:10579000029F1019112481E0E81AF1081A3014F45C
:1057A000105D01C0195CF7011083122FE32FCA01AD
:1057B000232B242B252B31F7B701C6010E94882B00
:1057C000A1960FB6F894DEBF0FBECDBFDF91CF918B
:1057D0001F910F91FF90EF90DF90CF90BF90AF900F
:1057E0009F908F9008950F931F93CF93DF93EC01B9
:1057F0000E94882B8C01CE010E943E2B800F911FAE
:10580000DF91CF911F910F9108950C94882B2F92C7
:105810003F924F925F926F927F928F929F92AF9240
:10582000BF92CF92DF92EF92FF920F931F93CF938D
:10583000DF9300D01F92CDB7DEB7FC0144805580C6
:105840004114510409F413C1FB0164807580611493
:10585000710409F40CC17A016B019C838B83FA01FA
:10586000A480B580A618B708FC0100811181A1149D
:10587000B104C1F4F60160817181C8010E941E4823
:105880005C01892B09F4F3C0F701608171814481C7
:105890005581C5010E94D947F701048115810A0D80
:1058A0001B1DE8CFB7FE02C0480106C0FB012080E7
:1058B00031804201C80148C0F60160817181C40194
:1058C0000E941E482C01892B29F1320168187908A1
:1058D000A301B401C8010E94D947060D171DF701A5
:1058E0006081718144815581C8010E94D947F701C7
:1058F00084819581080F191FF60184809580840C9E
:10590000951CEB81FC81848195818A0D9B1D95837B
:105910008483D2CFB401C8010F900F900F900F90E5
:10592000DF91CF911F910F91FF90EF90DF90CF907B
:10593000BF90AF909F908F907F906F905F904F90AF
:105940003F902F900C940848B1010E941E48009788
:1059500029F0860D971D8A0C9B1CF6CF84149504A4
:1059600009F485C0EB81FC818281938188159905BA
:1059700078F4B4016F5F7F4FC8010E94F046009732
:1059800009F475C0EB81FC819183808393828282CC
:10599000EB81FC81048115810150110917FD67C05D
:1059A000F601248035802114310409F460C0EB81B4
:1059B000FC81648075806114710409F458C062141C
:1059C000730408F454C00615170518F0830101503C
:1059D0001109EB81FC8140805180C20188248A94A6
:1059E000982C9201200F311F2817390758F0F60123
:1059F0006081718129833A830E941E4829813A81FE
:105A0000009761F597FC33C0280C391CC201820D48
:105A1000931DA30142195309BC018A0D9B1D0E94CD
:105A2000E247EB81FC81848195818A0D9B1D9583E2
:105A3000848320813181F901E80FF91F1082EB8105
:105A4000FC8180819181F701608171814481558160
:105A5000880D991D0E94D94784019ECFAC0144193D
:105A600055090417150708F04A010196BDCF0F909C
:105A70000F900F900F90DF91CF911F910F91FF909A
:105A8000EF90DF90CF90BF90AF909F908F907F90DE
:105A90006F905F904F903F902F900895FC0124816C
:105AA0003581232B31F421E061157105A1F0FB0153
:105AB00008C0FC01808191816115710531F421E0FC
:105AC000FC018081882339F005C00E94FF4721E056
:105AD000892B09F020E0822F0895EF92FF920F9317
